:1009F70057656C636F6D65005365636F6E64733A1B
:010A070000EE
:08097C008FA0D2917F327E00B2
:10098400EF4E60147D737C00ED1D70011CED4C7006
:08099400F7EF1F70EB1E80E875
:01099C002238
:10099D007C00AF03AE021208BF8E108F117C007D5C
:0809AD000A1208BFED2430FF1F
:0809B500D29012097CC29122CC
:080A1400C29012097CC291227C
:1009BD007F38120A147F01120A147F06120A147F5F
:0E09CD000E120A147F80120A147F0C020A1404
:050A1C007F01020A1435
:10095600EF24FE600F14601114601324037016ED6B
:10096600247F800DED24BF8008ED24938003ED24C1
:06097600D3FF120A142257
:0609DB007BFF7D017F019E
:1009E1001209561208A6FF600C1209B5740129F903
:0609F100E43AFA80EE2258
:10080000E4F9EFF5823395E04582600AEDF5823335
:1008100095E0458270077F80120A14800312095602
:10082000E50F6405450E6005E9640170147C277DC1
:1008300010AF03AE021208BFEF2430FF1209B579E2
:1008400001E50F6404450E6005E9640170097C034D
:100850007DE812099F7901E50F6403450E6005E903
:10086000640170077D6412099D7901E50F640245FA
:100870000E6005E9640170077D0A12099D7901E5A2
:100880000F6401450E6005E964017007AE02AF0315
:100890001209AAD3E50F9405E50E64809480400503
:0508A0007F451209B5BF
:0108A5002230
:10091400E4F508F5091209BD7A0979F71209DB7FB4
:10092400E87E03120984120A1C7A0979FF1209DB92
:10093400750E00750F02AB09AA087D017F0212082B
:10094400000509E509700205087FE87E03120984A1
:0209540080D74A
:03000000020A08E9
:0C0A0800787FE4F6D8FD75811102091416
:1008A600BB010689828A83E0225002E722BBFE0250
:0908B600E32289828A83E4932283
:1008BF00BC000BBE0029EF8DF084FFADF022E4CC1D
:1008CF00F875F008EF2FFFEE33FEEC33FCEE9DECE6
:1008DF00984005FCEE9DFE0FD5F0E9E4CEFD22ED2C
:1008EF00F8F5F0EE8420D21CFEADF075F008EF2F76
:1008FF00FFED33FD4007985006D5F0F222C398FD67
:05090F000FD5F0EA2203
:00000001FF
