:100B570054696D657220617320436F756E74657299
:010B6700008D
:100A6C007F017E00120A86D2A5D2A4D2A37F017E7A
:0A0A7C0000120A86C2A37F017E006B
:100A8600EF4E60147D737C00ED1D70011CED4C7003
:080A9600F7EF1F70EB1E80E872
:010A9E002235
:100ACA00120A9F7F057E00120A867F2812098A7FF2
:100ADA000112098A7F0612098A7F0E12098A7F800B
:080AEA0012098A7F0C02098A3F
:100A9F00C2A2C2A3C2A6C2A7120A6CD2A5D2A4D266
:100AAF00A3120A82C2A3120A6CD2A5C2A4D2A312A5
:0B0ABF000A82C2A37F017E00020A86AB
:100A33007FFFAE071FEE70FA7FFFAE071FEE70FA5F
:100A43007FFFAE071FEE70FA7FFFAE071FEE70FA4F
:100A53007FFFAE071FEE70FA7FFFAE071FEE70FA3F
:080A63007FFFAE071FEE70FAE1
:010A6B002268
:10098A00AB07EB30E704D2A78002C2A7EB30E6043C
:10099A00D2A68002C2A6EB30E504D2A58002C2A587
:1009AA00EB30E404D2A48002C2A4C2A2D2A37F0282
:1009BA00120A7BEB30E304D2A78002C2A7EB30E233
:1009CA0004D2A68002C2A6EB30E104D2A58002C2FC
:1009DA00A5EB30E004D2A48002C2A4C2A2D2A37FB3
:0909EA00027E00120A86C2A3225B
:100897007C00AF82AE831209358E108F117C007DEC
:0808A7000A120935ED2430FFAF
:1008AF00AB07EB30E704D2A78002C2A7EB30E60418
:1008BF00D2A68002C2A6EB30E504D2A58002C2A563
:1008CF00EB30E404D2A48002C2A4D2A2D2A37F024E
:1008DF007E00120A86C2A3EB30E304D2A78002C2C5
:1008EF00A7EB30E204D2A68002C2A6EB30E104D21D
:1008FF00A58002C2A5EB30E004D2A48002C2A4D22C
:0D090F00A2D2A37F027E00120A86C2A3229C
:100AF2008B0A8A0B890C120B18AB0AAA0BA90C12CF
:100B0200091CFF60101208AF7401250CF50CE435C6
:060B12000BF50B80E4224C
:100B1800EF24FE600F14601114601324037016EDA7
:100B2800247F800DED24BF8008ED24938003ED24FD
:060B3800D3FF12098A221E
:060800008F0A8B828A833F
:10080600E4FAE50A6003ED70077F8012098A800525
:10081600AF0A120B18E50F6405450E6003BA011402
:100826007C277D10AF82AE83120935EF2430FF128C
:1008360008AF7A01E50F6404450E6003BA01097C2E
:10084600037DE81208997A01E50F6403450E6003FB
:10085600BA01077D641208977A01E50F6402450E16
:100866006003BA01077D0A1208977A01E50F640151
:10087600450E6003BA0107AE83AF821208A4D3E522
:100886000F9405E50E6480948040057F451208AFFD
:01089600223F
:100B3E00EF4E60147D737C00ED1D70011CED4C704A
:080B4E00F7EF1F70EB1E80E8B9
:010B5600227C
:1009F300E4F508F509120ACA7BFF7A0B79577D01E2
:100A03007F01120AF2758905E4F58CF58AD28CAF61
:100A13008A7508008F09750E00750F03AB09AA08C4
:100A23007D017F021208007FC87E00120B3E80DF2B
:03000000020B6888
:0C0B6800787FE4F6D8FD7581110209F3D6
:10091C00BB010689828A83E0225002E722BBFE02D9
:09092C00E32289828A83E493220C
:10093500BC000BBE0029EF8DF084FFADF022E4CCA6
:10094500F875F008EF2FFFEE33FEEC33FCEE9DEC6F
:10095500984005FCEE9DFE0FD5F0E9E4CEFD22EDB5
:10096500F8F5F0EE8420D21CFEADF075F008EF2FFF
:10097500FFED33FD4007985006D5F0F222C398FDF0
:050985000FD5F0EA228D
:00000001FF
