:080843008FA0D2917F327E00EC
:10084B00EF4E60147D737C00ED1D70011CED4C7040
:08085B00F7EF1F70EB1E80E8AF
:010863002272
:08087000D290120843C291224C
:08087800C290120843C2912254
:100800007F381208787F021208787F011208787FFB
:100810000C1208787F061208787FC71208787F5775
:100820001208707F651208707F6C1208707F631267
:1008300008707F6F1208707F6D1208707F65120854
:030840007080FEC7
:030000000208648F
:0C086400787FE4F6D8FD758107020800DB
:00000001FF
