:1008740048656C6C6F2053657269616C20506F72AF
:020884007400FE
:10082F00EF4E60147D737C00ED1D70011CED4C705C
:08083F00F7EF1F70EB1E80E8CB
:01084700228E
:0F088600758920759850758DFD758BFDD28E226A
:0808A1008F993099FDC29922E4
:10086100120848FF600C1208A1740129F9E43AFA50
:0308710080EE22F4
:0808A9003098FDC298AF9922BE
:10080000C2A01208867BFF7A087974120861120868
:10081000A98F08E508B44102D2A0E508B44202C29B
:0F082000A07FE87E0312082FAF081208A180DF27
:030000000208955E
:0C089500787FE4F6D8FD758108020800A9
:10084800BB010689828A83E0225002E722BBFE02AE
:09085800E32289828A83E49322E1
:00000001FF
