:100B610054656D703A00566F6C746167653A200088
:100A7E007F017E00120A98D2A5D2A4D2A37F017E56
:0A0A8E0000120A98C2A37F017E0047
:100A9800EF4E60147D737C00ED1D70011CED4C70F1
:080AA800F7EF1F70EB1E80E860
:010AB0002223
:100ADC00120AB17F057E00120A987F2812099C7FAA
:100AEC000112099C7F0612099C7F0E12099C7F80C3
:080AFC0012099C7F0C02099C09
:100AB100C2A2C2A3C2A6C2A7120A7ED2A5D2A4D242
:100AC100A3120A94C2A3120A7ED2A5C2A4D2A3126F
:0B0AD1000A94C2A37F017E00020A9875
:100A45007FFFAE071FEE70FA7FFFAE071FEE70FA4D
:100A55007FFFAE071FEE70FA7FFFAE071FEE70FA3D
:100A65007FFFAE071FEE70FA7FFFAE071FEE70FA2D
:080A75007FFFAE071FEE70FACF
:010A7D002256
:10099C00AB07EB30E704D2A78002C2A7EB30E6042A
:1009AC00D2A68002C2A6EB30E504D2A58002C2A575
:1009BC00EB30E404D2A48002C2A4C2A2D2A37F0270
:1009CC00120A8DEB30E304D2A78002C2A7EB30E20F
:1009DC0004D2A68002C2A6EB30E104D2A58002C2EA
:1009EC00A5EB30E004D2A48002C2A4C2A2D2A37FA1
:0909FC00027E00120A98C2A32237
:1008A9007C00AF82AE831209478E0E8F0F7C007DCC
:0808B9000A120947ED2430FF8B
:1008C100AB07EB30E704D2A78002C2A7EB30E60406
:1008D100D2A68002C2A6EB30E504D2A58002C2A551
:1008E100EB30E404D2A48002C2A4D2A2D2A37F023C
:1008F1007E00120A98C2A3EB30E304D2A78002C2A1
:10090100A7EB30E204D2A68002C2A6EB30E104D20A
:10091100A58002C2A5EB30E004D2A48002C2A4D219
:0D092100A2D2A37F027E00120A98C2A32278
:100B04008B088A09890A120B2AAB08AA09A90A12B6
:100B1400092EFF60101208C17401250AF50AE43594
:060B240009F50980E4223E
:100B2A00EF24FE600F14601114601324037016ED95
:100B3A00247F800DED24BF8008ED24938003ED24EB
:060B4A00D3FF12099C22FA
:060800008F088B828A8341
:10080600E4FAEF3395E04F6008EDFF3395E04F7063
:10081600077F8012099C8005AF08120B2AE50D643C
:1008260005450C6005EA640170147C277D10AF82D3
:10083600AE83120947EF2430FF1208C17A01E50D95
:100846006404450C6005EA640170097C037DE812C6
:1008560008AB7A01E50D6403450C6005EA64017096
:10086600077D641208A97A01E50D6402450C60054E
:10087600EA640170077D0A1208A97A01E50D640190
:10088600450C6005EA64017007AE83AF821208B6B4
:10089600D3E50D9405E50C6480948040057F4512F0
:0208A60008C187
:0108A800222D
:100A05007F647E00120A98D2B7120ADC7BFF7A0B4C
:100A150079617D017F01120B047BFF7A0B79677D7C
:100A2500017F02120B04120B7D120B50E512FB7AAB
:100A350000750C00750D047D067F0112080080E627
:080B7D00C2B6D2B620B7FD227A
:100B5000D2B5C2B58590127FFA7E00120A98D2B53E
:010B60002272
:03000000020B717F
:0C0B7100787FE4F6D8FD758114020A05B7
:10092E00BB010689828A83E0225002E722BBFE02C7
:09093E00E32289828A83E49322FA
:10094700BC000BBE0029EF8DF084FFADF022E4CC94
:10095700F875F008EF2FFFEE33FEEC33FCEE9DEC5D
:10096700984005FCEE9DFE0FD5F0E9E4CEFD22EDA3
:10097700F8F5F0EE8420D21CFEADF075F008EF2FED
:10098700FFED33FD4007985006D5F0F222C398FDDE
:050997000FD5F0EA227B
:00000001FF
