:090BCE004C43442054657374008B
:040BD7000210000008
:100ACA007F017E00120AE4D2A5D2A4D2A37F017EBE
:0A0ADA0000120AE4C2A37F017E00AF
:100AE400EF4E60147D737C00ED1D70011CED4C70A5
:080AF400F7EF1F70EB1E80E814
:010AFC0022D7
:100B5A00120B2F7F057E00120AE47F28120A287FD3
:100B6A0001120A287F06120A287F0E120A287F809D
:080B7A00120A287F0C020A2870
:100B2F00C2A2C2A3C2A6C2A7120ACAD2A5D2A4D277
:100B3F00A3120AE0C2A3120ACAD2A5C2A4D2A31258
:0B0B4F000AE0C2A37F017E00020AE45E
:100A91007FFFAE071FEE70FA7FFFAE071FEE70FA01
:100AA1007FFFAE071FEE70FA7FFFAE071FEE70FAF1
:100AB1007FFFAE071FEE70FA7FFFAE071FEE70FAE1
:080AC1007FFFAE071FEE70FA83
:010AC900220A
:100A2800AB07EB30E704D2A78002C2A7EB30E6049D
:100A3800D2A68002C2A6EB30E504D2A58002C2A5E8
:100A4800EB30E404D2A48002C2A4C2A2D2A37F02E3
:100A5800120AD9EB30E304D2A78002C2A7EB30E236
:100A680004D2A68002C2A6EB30E104D2A58002C25D
:100A7800A5EB30E004D2A48002C2A4C2A2D2A37F14
:090A8800027E00120AE4C2A3225E
:100935007C00AF82AE831209D38E0E8F0F7C007DB3
:080945000A1209D3ED2430FF72
:10094D00AB07EB30E704D2A78002C2A7EB30E60479
:10095D00D2A68002C2A6EB30E504D2A58002C2A5C4
:10096D00EB30E404D2A48002C2A4D2A2D2A37F02AF
:10097D007E00120AE4C2A3EB30E304D2A78002C2C8
:10098D00A7EB30E204D2A68002C2A6EB30E104D27E
:10099D00A58002C2A5EB30E004D2A48002C2A4D28D
:0D09AD00A2D2A37F027E00120AE4C2A322A0
:100B82008B088A09890A120BA8AB08AA09A90A12BA
:100B920009BAFF601012094D7401250AF50AE435FD
:060BA20009F50980E422C0
:100BA800EF24FE600F14601114601324037016ED17
:100BB800247F800DED24BF8008ED24938003ED246D
:060BC800D3FF120A2822EF
:060800008F088B828A8341
:10080600E4FAEF3395E04F6008EDFF3395E04F7063
:10081600077F80120A288005AF08120BA8E50D6431
:1008260005450C6005EA640170147C277D10AF82D3
:10083600AE831209D3EF2430FF12094D7A01E50D7C
:100846006404450C6005EA640170097C037DE812C6
:1008560009377A01E50D6403450C6005EA64017009
:10086600077D641209357A01E50D6402450C6005C1
:10087600EA640170077D0A1209357A01E50D640103
:10088600450C6005EA64017007AE83AF8212094227
:10089600D3E50D9405E50C6480948040057F4512F0
:0208A600094DFA
:0108A800222D
:100AFD00120B5A7BFF7A0B79CE7D017F01120B828F
:100B0D00750C00750D05AB11AA107D017F02120841
:100B1D00000511E511700205107F647E00120AE4D4
:020B2D0080DE68
:030000000208A94A
:0C08A900787FE4F6D8FD7581110208F09C
:1009BA00BB010689828A83E0225002E722BBFE023B
:0909CA00E32289828A83E493226E
:1009D300BC000BBE0029EF8DF084FFADF022E4CC08
:1009E300F875F008EF2FFFEE33FEEC33FCEE9DECD1
:1009F300984005FCEE9DFE0FD5F0E9E4CEFD22ED17
:100A0300F8F5F0EE8420D21CFEADF075F008EF2F60
:100A1300FFED33FD4007985006D5F0F222C398FD51
:050A23000FD5F0EA22EE
:1008B500020AFDE493A3F8E493A34003F68001F252
:1008C50008DFF48029E493A3F85407240CC8C33344
:1008D500C4540F4420C8834004F456800146F6DF13
:1008E500E4800B0102040810204080900BD7E47EC1
:1008F500019360BCA3FF543F30E509541FFEE49308
:10090500A360010ECF54C025E060A840B8E493A3CE
:10091500FAE493A3F8E493A3C8C582C8CAC583CAF9
:10092500F0A3C8C582C8CAC583CADFE9DEE780BEB1
:010BDB000019
:00000001FF
