:100D56004144432056616C3A00566F6C7461676576
:030D66003A200030
:100C84007F017E00120C9ED2A5D2A4D2A37F017E46
:0A0C940000120C9EC2A37F017E0037
:100C9E00EF4E60147D737C00ED1D70011CED4C70E9
:080CAE00F7EF1F70EB1E80E858
:010CB600221B
:100CE200120CB77F057E00120C9E7F28120BE27F4A
:100CF20001120BE27F06120BE27F0E120BE27F80E3
:080D0200120BE27F0C020BE270
:100CB700C2A2C2A3C2A6C2A7120C84D2A5D2A4D232
:100CC700A3120C9AC2A3120C84D2A5C2A4D2A31257
:0B0CD7000C9AC2A37F017E00020C9E5D
:100C4B007FFFAE071FEE70FA7FFFAE071FEE70FA45
:100C5B007FFFAE071FEE70FA7FFFAE071FEE70FA35
:100C6B007FFFAE071FEE70FA7FFFAE071FEE70FA25
:080C7B007FFFAE071FEE70FAC7
:010C8300224E
:100BE200AB07EB30E704D2A78002C2A7EB30E604E2
:100BF200D2A68002C2A6EB30E504D2A58002C2A52D
:100C0200EB30E404D2A48002C2A4C2A2D2A37F0227
:100C1200120C93EB30E304D2A78002C2A7EB30E2BE
:100C220004D2A68002C2A6EB30E104D2A58002C2A1
:100C3200A5EB30E004D2A48002C2A4C2A2D2A37F58
:090C4200027E00120C9EC2A322E6
:100AEA007C00AF82AE831209DE8E0E8F0F7C007DF2
:080AFA000A1209DEED2430FFB1
:100B0200AB07EB30E704D2A78002C2A7EB30E604C2
:100B1200D2A68002C2A6EB30E504D2A58002C2A50D
:100B2200EB30E404D2A48002C2A4D2A2D2A37F02F8
:100B32007E00120C9EC2A3EB30E304D2A78002C255
:100B4200A7EB30E204D2A68002C2A6EB30E104D2C7
:100B5200A58002C2A5EB30E004D2A48002C2A4D2D6
:0D0B6200A2D2A37F027E00120C9EC2A3222D
:100D0A008B088A09890A120D30AB08AA09A90A12A6
:100D1A0009C5FF6010120B027401250AF50AE435B1
:060D2A0009F50980E42236
:100D3000EF24FE600F14601114601324037016ED8D
:100D4000247F800DED24BF8008ED24938003ED24E3
:060D5000D3FF120BE222AA
:060A41008F088B828A83FE
:100A4700E4FAEF3395E04F6008EDFF3395E04F7020
:100A5700077F80120BE28005AF08120D30E50D64A9
:100A670005450C6005EA640170147C277D10AF8290
:100A7700AE831209DEEF2430FF120B027A01E50D77
:100A87006404450C6005EA640170097C037DE81283
:100A97000AEC7A01E50D6403450C6005EA64017010
:100AA700077D64120AEA7A01E50D6402450C6005C8
:100AB700EA640170077D0A120AEA7A01E50D64010A
:100AC700450C6005EA64017007AE83AF82120AF72E
:100AD700D3E50D9405E50C6480948040057F4512AD
:020AE7000B0200
:010AE90022EA
:100B6F007F647E00120C9ED2B7120CE27BFF7A0DCF
:100B7F0079567D017F01120D0A7BFF7A0D795F7D1A
:100B8F00017F02120D0A120D86120D69E510FB7A14
:100B9F0000750C00750D047D0D7F01120A41AC101C
:100BAF00E41209107B717A3D799C7841120800128A
:100BBF0009448E118F12E51075F00AA485F011F516
:100BCF0012750C00750D04FBAA117D0D7F02120A20
:030BDF004180B39F
:080D8600C2B6D2B620B7FD226F
:100D6900D2B5C2B58590107FFA7E00120C9ED2B51D
:010D79002257
:10080000EC4D6011E8497017ED33EC3304600DE4F2
:10081000FCFFFEFD22E933E8330470F80209B01250
:10082000097B58046009E4CC248150062850090251
:1008300009BA2840030209B7C0E0EB4A7044B98006
:1008400006D0E0FB0209A6EF4E701CBD8008EBFF4E
:10085000EAFEE9FD80EBE98DF0A4FEE5F00208E98F
:10086000E9CDF9EAFEEBFFEF89F0A4FCE5F0CE89D3
:10087000F0A42EFFE435F0CD89F0A42DFEE435F090
:100880008067EF4E7005BD80D780C3EF8BF0A4ACBE
:10089000F0EE8BF0A42CFCE435F0F8EF8AF0A42CF9
:1008A000E5F038FCE433CB8DF0A42CFCE5F03BF80C
:1008B000EE8AF0A42CFCE5F038F8E433CF89F0A4FC
:1008C0002CFCE5F038CF3400CE89F0A42FFFE5F002
:1008D0003EFEE433C98DF0A42EFEE5F039CD8AF05A
:1008E000A42FFFE5F03EFEE43DFD33D0E0FB5007D2
:1008F0000BBB000F0209BAEC2CFCEF33FFEE33FE0A
:06090000ED33FD02099237
:1009060075F020800E75F010800575F0087D007E6C
:10091600007F003392D530D503120A33EC334010F2
:10092600EF33FFEE33FEED33FDEC33FCD5F0ED2275
:0E093600E5F0247EA2D513CC92E7CDCEFF22B1
:10094400EDD2E7CD33EC3392D524814006E4FFFEAB
:10095400FDFC22FCE4CFCECDCC24E0501174FF800A
:10096400EDC3CC13CCCD13CDCE13CECF13CF0470A7
:07097400F030D5DE020A336A
:10097B00E9D2E7C933E833F892D5EDD2E7CD33ECC2
:07098B0033FC5002B2D5223B
:10099200EC30E7100FBF000C0EBE00080DBD0004C6
:1009A2000BEB6014A2D5EB13FCED92E7FD2274FF72
:1009B200FCFDFEFF22E480F8A2D574FF13FC7D80CB
:0309C200E480EFDF
:03000000020D7A74
:0C0D7A00787FE4F6D8FD758112020B6F43
:1009C500BB010689828A83E0225002E722BBFE0230
:0909D500E32289828A83E4932263
:1009DE00BC000BBE0029EF8DF084FFADF022E4CCFD
:1009EE00F875F008EF2FFFEE33FEEC33FCEE9DECC6
:1009FE00984005FCEE9DFE0FD5F0E9E4CEFD22ED0C
:100A0E00F8F5F0EE8420D21CFEADF075F008EF2F55
:100A1E00FFED33FD4007985006D5F0F222C398FD46
:050A2E000FD5F0EA22E3
:0E0A3300C3E49FFFE49EFEE49DFDE49CFC22D4
:00000001FF
